:020000040800F2
:100000000000022085470008D9470008D9470008AA
:10001000D9470008D9470008D94700080000000068
:10002000000000000000000000000000D9470008A8
:10003000D947000800000000D9470008E124000863
:10004000D9470008D9470008D9470008D947000810
:10005000D9470008D94700088D2F0008932F0008C2
:10006000D9470008D9470008992F0008D947000848
:10007000D9470008D9470008D9470008D9470008E0
:10008000D9470008D9470008D9470008D9470008D0
:10009000D9470008D9470008D94700089F2F000812
:1000A000D9470008D9470008D9470008D9470008B0
:1000B000D9470008D9470008D9470008D9470008A0
:1000C000D9470008D9470008D9470008D947000890
:1000D000D9470008D9470008D9470008D947000880
:1000E000D9470008D947000800000000D947000898
:1000F000D9470008D9470008D9470008D947000860
:10010000D9470008D9470008D9470008D94700084F
:10011000D9470008D9470008D9470008D94700083F
:10012000D9470008D9470008D9470008D94700082F
:10013000D9470008D9470008D9470008D94700081F
:1001400000000000000000000000000000000000AF
:10015000D9470008D9470008D9470008711200089C
:10016000D9470008D9470008D9470008D9470008EF
:10017000D9470008D9470008D94700080000000007
:10018000D9470008D9470008D9470008D9470008CF
:10019000D9470008D9470008D9470008D9470008BF
:1001A000D9470008D9470008D9470008D9470008AF
:1001B000D9470008D9470008D9470008D94700089F
:1001C000D9470008D9470008D9470008D94700088F
:1001D000D9470008953B0008D9470008D9470008CF
:1001E000D9470008D9470008D9470008D94700086F
:1001F000D9470008D9470008D9470008D94700085F
:10020000D9470008D9470008D9470008D94700084E
:10021000D9470008D9470008D9470008D94700083E
:10022000D9470008D9470008D94700080000000056
:10023000D9470008D947000800000000D947000846
:10024000D9470008D9470008D9470008D94700080E
:10025000D9470008D9470008D9470008D9470008FE
:10026000D9470008D9470008D9470008D9470008EE
:10027000D9470008D9470008D94700080000000006
:10028000D9470008D9470008D947000800000000F6
:0802900000000000D94700083E
:1002A00070B50C461E461546D0E9000398473060ED
:1002B0002368984204D0002320606360012070BD51
:1002C0006368044A013393426360F7D90A2300202C
:1002D0006B60F4E73F420F0002460144002010B576
:1002E0008A4200D110BD12F8013B0824584010F09A
:1002F000800F0CBF0023D523013C83EA4003D8B212
:10030000F5D1EDE7924B2DE9F04F89B00026144668
:100310001A8888469B7805463146ADF80820204665
:1003200078228DF80A30049604AF8DF807603E718C
:100330000BF017FEB8EB060918BF4FF00109D5E91D
:100340000003C4F8089098472B693146E060CDE976
:10035000060628689847EB68E061314628689847A8
:10036000E369A06118431DD0092363602B69002154
:1003700028689847E06118B163680BB90923636086
:100380002B6A214628689847D5E900039847636897
:100390006061002B40F025814FEA4903236009B0DA
:1003A000BDE8F08FB8F1000FE0D04FF001082868E9
:1003B000AB682146C4F80080984706466060002874
:1003C000D4D1EB684146286898474045A061CBD11D
:1003D00040F6B738D5E900039847824603AB22467A
:1003E00006A92846FFF75CFF0028BFD0039BA3EBBC
:1003F0000A034345F2D92B6901212868984701284F
:10040000E061B1D1D5E9000398478046EB69224607
:100410000DF1070128689847002801DA0523A4E7B1
:1004200014D0636B0133FF2B636301D908239CE76E
:1004300003AB224606A92846FFF732FF002895D0D5
:10044000039BA3EB0803632BE0D9EFE7D5E9000397
:1004500098472061E36A022B2ED903AB224606A9F6
:100460002846FFF71DFF002880D02269039B9B1AB6
:10047000632B2FD8AB692146286898470028CDDB2D
:10048000EBD0D5E9000398474FF00008834603AB53
:10049000224606A92846FFF703FF00283FF466AF6F
:1004A000039BA3EB0B03B3F57A7F25D3A36B002B40
:1004B0000CBF0423062358E703AB224606A92846AF
:1004C000FFF7EEFE00283FF451AF2269039B9B1A11
:1004D000632B01D9032348E7E36A224628682033C7
:1004E0006B4413F8181C6B699847002896DB1EBFF5
:1004F000E36A0133E362ADE7EB6922460DF10701E0
:1005000028689847002889DBC1D0236B9DF8071025
:1005100003F1010AA36C1F2BC4F830A00CD85A1C9D
:10052000A26423F0030203F003032244DB00106DF6
:1005300001FA03F318431065B8F1000F0AD1CC2972
:1005400008D0636B01336363BAF1FF0F9FD96DE786
:10055000CCC8000808F12003B8F1040F6B4403F87D
:10056000101C3BD104213846FFF7B6FE9DF814302D
:1005700083421CD126F0030306F0030217F8011B87
:1005800001362344D200052E01FA02F11A6F42EA25
:1005900001021A67EED19DF81130BDF81220012B2F
:1005A0006664E36322643FF4E1AE0723DDE6A36BF8
:1005B00001210133A3633B4613F8012FCC2A02D05B
:1005C00001310529F8D1636BC1F1050838460B44A8
:1005D0004246394463630BF0ABFCB5E708F1010810
:1005E000B2E70323DAE600BF084BDB69836213F04E
:1005F0000F0308D0C26C1A43054BC2640F221B685C
:1006000001201A6270471846704700BF004800403A
:100610003800002010B510461446FFF7E5FF10B172
:100620004FF0FF3010BD064BDA699206FAD55B6ACF
:1006300020460B70FFF7D8FF0028F1D10120F1E729
:10064000004800400A1E08484FF4005118BF01221C
:1006500008B505F0BDFC4FF40051034805F0A6FCB9
:10066000431E5842584108BD000802580A1E084857
:100670004FF0080118BF012208B505F0A9FC0821B8
:10068000034805F093FC431E5842584108BD00BF83
:10069000000C02582DE9F043B9B0B8220F460021F2
:1006A0000AA84FF002080BF05CFC4FF0000903238E
:1006B00008A8CDE90889269306F0BEFE044618B1C5
:1006C000022039B0BDE8F0834046494607F0B8FE45
:1006D0003B4B38629842F3D13A4B4FF480613A4831
:1006E0004FF48068D3F8E0200126384D42F0020232
:1006F000C3F8E020D3F8E02002F002020192019A50
:10070000D3F8E82042F48022C3F8E820D3F8E820A8
:1007100002F480220292029AD3F8902042F48022BE
:10072000C3F89020D3F8902022F48022C3F89020C0
:10073000012205F04DFC03A923480794CDE90544A7
:10074000CDE9038605F0A2FA8C22214620480BF061
:1007500008FC1F4B1F4A43F8085C4FF4E133104676
:1007600053600C23536108F0A3FE08B10120A8E7F1
:10077000184808F047FF04460028F7D1EB68B3F5A6
:100780000B7F7B629CD1EB69980299D5EB6959028A
:1007900096D5022303A90C4804930723CDF80C80B7
:1007A000079305F073FA4FF40063074803A9059611
:1007B000039305F06BFA084B20461E6081E700BFEB
:1007C0000090D00300440258000402580048004042
:1007D00040000020380000203400002004F05EB803
:1007E00008B51046FFF700FF30B9054BDA6912066D
:1007F00001D50120996208BD4FF0FF30FBE700BF33
:100800000048004008B50846FFF7EEFE20B9044B4B
:10081000D869C0F3801008BD4FF0FF30FBE700BF80
:100820000048004010B514480C46082105F0BEFBF6
:10083000431E4FF4005158425841A0610F4805F043
:10084000B5FB421E0E4B50421B685041E06193B114
:100850000C4BE26CDB69A36203F00F031343E36408
:100860001BB163680BB905236360074B1A681368F3
:1008700023F00103136010BD000C02580008025859
:100880003400002000480040380000201F4B0021A9
:10089000D3F8E02042F0040210B588B0C3F8E0209D
:1008A000D3F8E020002403A802F004020192019A88
:1008B000D3F8E02042F00802C3F8E0201422D3F875
:1008C000E03003F008030293029B0BF04AFB002286
:1008D0004FF400510E4805F07BFB01234FF400520A
:1008E00003A90B48CDE90323CDE9054405F0CEF972
:1008F00022460821074805F06BFB082303A9054899
:10090000039305F0C3F908B010BD00BF00440258BE
:1009100000080258000C0258F0B5094D8BB006468D
:100920000F4601AC0FCD0FC40FCD0FC42B683A4654
:10093000314601A82360FFF7E5FC0BB0F0BD00BF16
:10094000D0C8000830B501444FF0FF33084D88424D
:1009500001D1D84330BD10F8012B5340082213F0C9
:10096000010418BF2C46013A84EA5303F7D1EEE79D
:100970002083B8ED00210B4630B521F00102A1F132
:100980000E04825A02F47F45012C98BF2A46CD07F7
:100990004CBFD2B2120A5340082213F4004F0CBFCE
:1009A00000244FF44054013A84EA43039BB2F4D14B
:1009B00001311029E1D1180B30BD002330B51A46A2
:1009C00000F10C044FF6FF7530F8021F002908BF34
:1009D0000132A94208BF01338442F5D1062B18BF6A
:1009E000062A14BF0120002030BD2DE9F041089DEA
:1009F0001E46002342F21074DDE906782B60C8F829
:100A00000030A0F59C43203BA34203D9002038606E
:100A1000BDE8F0814C1E4FF6FD739C42F6D842EAC9
:100A20000603B3F5803FF1D240F6E4434C0803FBE4
:100A30000044B4FBF1F4A4F5E163B3F5E16FE5D84C
:100A4000A2FB04020B233C6047F6FF77A0FB0301E7
:100A5000A4FB064603FB0211C0194FF6FF724FF0CC
:100A6000000341F100010BF08FFD2419C8F80000CC
:100A70004FF6FF727641E0194FF0000346F1000196
:100A80000BF082FD28600120C2E700002DE9F04F45
:100A900087B015460446109A05930023049113600D
:100AA000059A13604A1E814B9A4203D9002007B071
:100AB000BDE8F08F6A1E9A42F8D8FFF77EFF002843
:100AC000F4D02046FFF756FFE38903F00F03984266
:100AD000ECD163891B02EA1AA3896EEB0E0EA3FB0D
:100AE000020903FB0E99B9F1000F03DA704BC0182D
:100AF00049F100092789C00DA18840EA4920A7FBD8
:100B000002534FEAE95910F5FA6607FB0E3349F133
:100B1000000C002B02DA7F3543F10003ED094FF49E
:100B2000803745EA4365DB11C1FB07530195E58832
:100B30009B466188A5FB023405FB0E44002C02DABB
:100B4000FF3344F100041B0AB6F5FA6F4FEA24257F
:100B500043EA04634FF40044C1FB04357CF1000117
:100B6000029566DA052700FB09F5A0FB001404EBEB
:100B70004504A1FB075107FB04114E4C6F08A64228
:100B80004FEA95054FF0FF3447EAC1774FEA610815
:100B900045EA81757CEB04044FEAA101039124DA54
:100BA00040F6AC544FF0070A041949F1000904FB60
:100BB00009F9A4FB040404EB4904A0FB0A9119EB16
:100BC00007090AFB041A03994F464FF00B094AEB39
:100BD0000808A0FB090A09FB04AA400840EACA70F9
:100BE000401941EB6A010546039102FB0EFEA2FB90
:100BF000022010EB4E0005D56FF000441419224678
:100C000040F10000D20F42EA4002C017524260EBAE
:100C1000400092191646019A4CEB000CD71B6BEB67
:100C2000080B5D1B0197DDE9023263EB02012B46E5
:100C30000291049A0299A2FB0332049800FB01225C
:100C4000002A03DA1C495B1842F100025B0D01998E
:100C500043EAC22352155B1A62EB0B01109A00297A
:100C6000166008461A4604DA47F6FF729A1841F1F0
:100C70000000D20B16F57A6642EA404205984CF124
:100C8000000C026043F2D50296427CF1000CBFF4E6
:100C90000DAFB3F1FA73094A41F1FF31934271F19B
:100CA000000134BF0120002001E700BFFDFFFF006D
:100CB000FFFF7F0024FAFFFFFFFF1F0000806CE8AA
:100CC00000687047A0F13003DAB2092A01D818464B
:100CD0007047A0F14103052B01D837387047A0F1C8
:100CE0006103052B94BF57384FF0FF30704770B544
:100CF000054608460E460BF0C1F91D2804460AD8E1
:100D00000246314628460BF003F920B9285DB0FAB7
:100D100080F0400970BD0020FCE74FF4757210B5FB
:100D20000C4600210BF01DF90122C0E94744026086
:100D300010BD10B5046A00230C44C0F83831C0F867
:100D4000503104628469C0F82C311443D21A18BFA0
:100D50000122C91A846118BF0121090141EAC201B7
:100D600082680A43C0E94C33826010BD02680346C2
:100D700010B512B3D0F8302112B9D0F8502192B189
:100D80009A6B8A1AB2F5C87F0DD90022C3E94C22AA
:100D9000C3F83821C3F850215A6B01325A639A685C
:100DA00042F080029A60D8685C6820F03802C3F88C
:100DB0002011DA6014B107221A6010BD440709D46B
:100DC000D3F81C218A1A41F288318A4294BF012249
:100DD0000222F1E793F870000238C0B201281DD852
:100DE00093F87100C00719D593F8AA00C40715D469
:100DF0001E4C03F17400FFF763FF04191C48844282
:100E00000CD81C4C03F17800FFF75AFFA04205DB19
:100E1000194CA042DCBF42F00802DA6093F8670088
:100E200000F007000728D3F82C0104BF42F010029D
:100E3000DA6060B1186C40F6B834081AA04206D8DF
:100E4000586C091AA1429CBF42F02002DA60900758
:100E500001D40322B0E7910601D40622ACE712F0D8
:100E6000080F0CBF04220522A6E700BF00D2496B81
:100E700000A493D600175BCA00E9A4352DE9F84F0A
:100E800004460D4611461746FFF770FFE369D4F894
:100E900030610133A763E361082E00F27281DFE85D
:100EA00016F0090068007001700170017001700196
:100EB00076007A00B52D06D10023C4F85031012305
:100EC000C4F8303106E0242D06D1012384F85453B0
:100ED000C4F85031BDE8F88FD4F850110029F9D08A
:100EE00080290AD10023C4F85031236B01332363D6
:100EF000A36843F04003A360ECE74B1C0A2D214498
:100F0000C4F8503181F85453E4D1062B29D991F813
:100F100053330D2B25D191F850332A2B21D104F5D1
:100F2000557301F24F3213F8010F934286EA00061F
:100F3000F9D191F85103FFF7C5FE0546681C10D0A2
:100F400091F85203FFF7BEFE421C0AD000EB0510D9
:100F5000B04206D1A36A0133A3620023C4F8503122
:100F6000B8E7E36A0133E362A36843F02003A360B8
:100F7000F3E7622D09D0A5F1B5035D425D41002381
:100F8000C4F83051C4E95133A4E70225F7E7082338
:100F9000C4F84C5194E7D4F84C21D4F844319A4227
:100FA00040F0E880D4F848319D4240F0E380636A25
:100FB00004F5AA7A01336362D4F83C310A2B40F07D
:100FC0009880D4F84031042B58D1D4F83861272EBA
:100FD00007D9A6F128011E23B1FBF3F203FB12117E
:100FE00039B1236B01332363A36843F04003A3604B
:100FF00044E03C2204F1E0000AF0B3FF534604F160
:10100000B80204F5BE7153F8040B8B4242F8040B8E
:10101000F9D14FF0280B5E453DD8E5680C227C499C
:1010200004F1B80025F002056665E76345F00103A9
:10103000E3600AF06DFF002857D194F8C4302BB15B
:10104000202B52D194F8C530282B4ED11E220021DE
:1010500004F1B8000AF0B4FF002846D06D4904F14D
:10106000E000FFF744FE00283FD06B4904F1FE008A
:10107000FFF73DFEC8B345F00305E56000233946A0
:101080002046C4F83831C4F85031C4E94C33BDE8C7
:10109000F84FFFF76BBE0AEB0B0508225F492846A5
:1010A0000AF036FF60B92B4604F1E00205F11C019D
:1010B00053F8040B8B4242F8040BF9D11B881380C0
:1010C0000422574928460AF023FF58B904F1FE03C9
:1010D00005F11C0255F8041B954243F8041BF9D195
:1010E0002A881A800BF11E0B95E7A36843F48073DE
:1010F0007DE7012BC2D1D4F84031072BBED1D4F803
:1011000038215C2A7FF46DAF514604F15C000AF08F
:10111000A7FF236D5046276401332365E36843F03E
:101120000403E3603F4BFFF7CBFD984206D9002351
:10113000C4F82C31A36843F4007358E7D4F828317D
:1011400063B1394AD4F82431D31A0344B3FBF2F122
:1011500002FB1133354A591E914208D80123C4F8C5
:1011600024016764C4F82831C4F82C3186E7002BC9
:10117000DDD183E7E36A0133E362A36843F0200330
:1011800035E7D4F84431023ED4F848212B44DBB291
:10119000C4F844311344DBB2C4F84831032E27D8D5
:1011A000DFE806F002060A0E0323C4F83C5187E686
:1011B0000423C4F8405183E60523C4F838517FE680
:1011C000D4F83831002243EA0523C4F83421B3F5BA
:1011D000007FC4F8383106D9C4F83021C4F838216A
:1011E000C4F8502181E6002B0CBF0723062367E6D5
:1011F000D4F834315A1C2344C4F8342183F85451B0
:10120000D4F838319A427FF465AE072358E600BF20
:1012100002C900080FC900081DC90008F4C8000869
:10122000FDC80008FF830C2400840C24FE41061234
:10123000B52370B5037062234370A9B10A22042359
:10124000C3700023411C461D1C468270437103710C
:1012500011F8012F2244B14202EB030514462B463C
:10126000F6D18271C57170BD01220723E8E7000045
:101270002DE9F84F20261B4FDFF86C901B4CFB69C3
:1012800013F00F0109D0D9F800200A43C9F8002053
:101290002268013222600F223A629B0612D57A6AD6
:1012A00071B9DFF84CA0134BDAF800801B6808F125
:1012B0000105C5F30A05AB4206D12368013323605B
:1012C000013EDCD1BDE8F88FDFF82CB00BEBC80392
:1012D0001A7103F0E3FA4BF83800BFF35F8FCAF8D6
:1012E0000050EDE700140140600500206405002077
:1012F0006C05002068050020700500202DE9F043F2
:10130000594EB9B003F0CAFA044601463046FFF719
:1013100004FD0021554B0822554D0AA819604FF0D5
:101320000108544B4FF0000929601960524B1960B5
:10133000524B1960524B1960524B1960524B196055
:10134000524B1C60524B1C60524B1C60524B1A603B
:10135000B822524B19600AF004FE182308A8CDE900
:101360000889279306F068F8044610B101237360DA
:1013700076E04046494607F063F8494B30619842B1
:10138000F4D1484B21464848D3F8E020474C42F07E
:101390000402C3F8E020D3F8E02002F00402019236
:1013A000019AD3F8F02042F02002C3F8F020D3F8DD
:1013B000F02002F020020292029AD3F8982042F024
:1013C0002002C3F89820D3F8982022F02002C3F816
:1013D00098208C220AF0C5FD334B354A43F8084C5F
:1013E0004FF41653104653600C23536108F060F815
:1013F00008B10223BBE72E4808F004F9074600288D
:10140000F7D1E36841F60B2293427361AED1E369F1
:1014100003F4C003B3F5C00FA8D1C022022303A96F
:10142000CDE903230723CDE905002248079304F003
:101430002DFC3A460621472004F0AAFB472004F081
:101440000FFC0F2347202362236843F4907323602B
:10145000A36843F00103A36001232B6004F0D8FBD1
:1014600039B0BDE8F08300BF74010020D80000202F
:10147000DC000020580500205C05002060050020ED
:1014800064050020680500206C0500204C05002044
:10149000500500205405002000000020D40000204A
:1014A0000090D00300440258E800002000140140DE
:1014B000E000002000080258664B1B682DE9F04749
:1014C000002B00F09580644F3B68002B40F090802B
:1014D0000123624C624E3B6003F0E0F9614A05462D
:1014E000D6F800C013681060C31AA26DDFF87881C7
:1014F0009A425E4A116838BFA3655D4B8C451868F7
:1015000003D1D8F8001081421DD0EFF3108C72B6D1
:101510005849D2F80090584AD3F800A00B681068D8
:10152000096811608CF3108831681B1A52464B48C9
:10153000C3F30A03A9EB01011944FFF7FAFBC6F84C
:101540000090C8F800A04FF480784B4EDFF824A13B
:10155000DFF828913268DAF800309A4213D0336805
:10156000BFF35F8F09EBC30159F833200979BFF34B
:101570005F8F01333948C3F30A033360FFF77EFC02
:10158000B8F10108E6D1DFF8F88029463348FFF7C3
:10159000EDFBD8F80030002B2CD03A4A3A493B4EAC
:1015A0001368072B19DCC869000611D4384B1B6877
:1015B000EB1AC82B1AD9082313600023C8F800308F
:1015C000E36C0133E364A36843F48063A3600DE03C
:1015D000581CF35C10608B62E2E7082BE6D12A4BC3
:1015E000DB695906E2D50023C8F8003000233B60D0
:1015F000BDE8F087244BDB695A06F7D5DFF89490F5
:10160000D9F80030EB1AB3F57A7FEFD3E368DB0744
:101610001DD5214B1E6842F20F73AE1B9E4294BF34
:101620000026012631461948FFF702FE0EB11A4B7B
:101630001D60174B0022C9F800501D60114B1A6045
:101640000123C8F80030A36C0133A364CEE7012660
:10165000E8E700BFDC000020D80000207401002073
:101660005C0500205405002058050020640500207A
:10167000600500206C050020680500207005002032
:10168000D40000200000002000140140CC00002005
:1016900048050020500500204C05002010B50446E8
:1016A00003F0FCF801460548FFF760FB4FF48E722B
:1016B000024920460AF0D4FC10BD00BF740100208E
:1016C000F8B50368044616460D46D3E90002904774
:1016D0002368074631469A68186890472368D3E91B
:1016E00000029047C01BB04206D26B680BB10020CD
:1016F000F8BD0B236B60FAE70120F9E74B6810B5E2
:101700000C4623B101229A408368134383608368A7
:1017100063620368D3E9000290476368A061002B0D
:101720000CBF02230323236010BD2DE9F0438BB0CF
:10173000174681460F220C4602A800219846DDE993
:1017400012560AF00EFC0F2247EAC617002106A81F
:101750000AF007FC8DF808702EB92A4641460DF1B3
:1017600009000AF07DFCD9F8000004F10C0306AA78
:1017700002A900936B1C07690068B84707462EB1A1
:101780002A460DF1190140460AF06AFC3FB1636830
:101790000BB90323636000200BB0BDE8F083012088
:1017A000FAE713B50124CDE90044FFF7BEFF02B00C
:1017B00010BDF7B506460C460A2500270DF10703B4
:1017C0007F22214630468DF80770FFF7EAFF70B19F
:1017D0009DF80730DB070AD4012221463046FFF787
:1017E0006FFF20B1013DE9D1636813B1002003B060
:1017F000F0BD06236360F9E77FB552BA04460D4693
:101800001E46ADF80C20FFF7D4FF10B9002004B03D
:1018100070BD0223002229462046CDE9003203ABE9
:101820007C22FFF782FF0028F0D0012229462046C3
:10183000FFF746FF0028E9D029462046FFF7B9FF09
:101840000028E3D033467E2229462046FFF7A9FF31
:101850000028DBD0012229462046FFF731FF00286F
:10186000D4D029462046FFF7A4FFD0E72DE9FF4159
:1018700000271D460DF10A0306460C4690468DF8DA
:101880000A708DF80B70FFF7B7FFB8B39DF80A30F8
:101890002146304623EA05039DF828501D4398FA57
:1018A00098F3EDB2ADF80C308DF80E50FFF781FFD4
:1018B00020B303237C2221463046009303AB0197DB
:1018C000FFF733FFD0B1012221463046FFF7F8FE83
:1018D000A0B121463046FFF76CFF78B10DF10B0344
:1018E000424621463046FFF787FF38B19DF80B305E
:1018F000AB4204D063680BB907236360002004B0D7
:10190000BDE8F0811FB54FF0000C8DF80F300123BA
:10191000CDE9003C0DF10F03FFF707FF05B000BD57
:1019200070B5002386B0722205468DF80D300C4646
:10193000ADF810308DF80E308DF80F30ADF8143052
:101940008DF816300DF10D03FFF72BFF48B19DF810
:101950000D30E92B84F8233006D063680BB90423DB
:101960006360002006B070BD022301261B222146C1
:101970002846CDE9003604ABFFF7D7FE0028F0D0AB
:101980000DF10E03102221462846FFF70AFF00281A
:10199000E7D00DF10F034AF2672221462846FFF7F0
:1019A0002BFF0028DDD00323162221462846009372
:1019B00005AB0196FFF7B9FE0028D2D09DF80E10B6
:1019C0009DF811500B049DF810609DF80F2043EA1C
:1019D00005230A2E43EA060343EA0263E36110D1BA
:1019E0000A2D0ED10F290CD193070AD59DF814307A
:1019F000042B06D19DF815301BB99DF81630012B2C
:101A000004D06368002BACD10723A9E7236A43F411
:101A100000332362A6E700002DE9F0430546144693
:101A200085B00E46142200212F4604300AF099FAA0
:101A30003C22002120460AF094FA47F80C6B4FF044
:101A40000108D6E900039847224620613946F36829
:101A500042F80C8B306898470023EA688DF808300C
:101A6000A2638DF809308DF80A308DF80B3088B1FB
:101A70006368404518BF022003B96060636821466F
:101A8000E26828466B602A61A360FFF737FE05B065
:101A9000BDE8F0837E4B9A4205D06368002BEDD100
:101AA000C4F80480EAE702AB722221462846FFF719
:101AB00078FE0028E2D09DF808301A06E92B226251
:101AC00005D06368002BD9D104236360D6E70DF1FC
:101AD00009032D2221462846FFF763FE0028CDD0BA
:101AE0000DF10A03322221462846FFF75AFE00284C
:101AF000C4D002237F2221462846FFF703FF002897
:101B0000BCD0022221462846FFF7DAFD0028B5D0D6
:101B10009DF80A30322221462846FFF7F3FE0028BE
:101B2000ACD09DF809302D2221462846FFF7EAFE69
:101B30000028A3D00DF10B037F2221462846FFF792
:101B400030FE00289AD09DF80B7017F0020704D0E1
:101B50006368002B92D10523B7E70DF10B0319221F
:101B600021462846FFF71DFE002887D09DF90B303F
:101B7000002BEDDA3B46162221462846FFF7C2FE2F
:101B800000283FF47BAF3B46172221462846FFF74B
:101B9000B9FE00283FF472AF0123182221462846DF
:101BA000FFF7B0FE00283FF469AF02234AF2672234
:101BB0002146284600933B46FFF758FE00283FF495
:101BC0005DAF344B0DF10C084AF23A064AF23E0979
:101BD00003930097324698F8003021462846FFF7D5
:101BE00045FE00283FF44AAF013608F10108B6B2BD
:101BF0004E45EED10DF10B03324621462846FFF744
:101C0000FBFD00283FF43AAF9DF80B309B0705D44D
:101C10006368002B7FF432AF072356E70A231B22A9
:101C200021462846FFF76EFE00283FF427AF0A231F
:101C30001C2221462846FFF765FE00283FF41EAF10
:101C40000423162221462846FFF75CFE00283FF4B5
:101C500015AF0F23102221462846FFF753FE002818
:101C60003FF40CAF642221462846FFF729FD0028E7
:101C70003FF404AF21462846FFF752FE00283FF408
:101C8000FDAE01236B61236A43F480232362F5E6F2
:101C900040420F00489224497FB50C460546382241
:101CA0000021201D0AF05DF901232360EB68A36386
:101CB0002B68D3E9000290476E6800232061A6607C
:101CC0008DF80F300EB96B696BB92B69002EE3608C
:101CD00008BF0226636803B9666021462846FFF7FD
:101CE0000DFD04B070BD236A2146284643F48023CD
:101CF0002362FFF715FE0028EFD00DF10F03192224
:101D000021462846FFF74DFD0028E6D09DF80F201C
:101D1000236A110643EA0203236205D56368002B98
:101D2000DBD105236360D8E7012221462846FFF76F
:101D3000C7FC0028D1D00DF10F03192221462846F7
:101D4000FFF72FFD0028C8D09DF80F301A0684F841
:101D50002030E3D45B0714D40136642EE4D16368E9
:101D6000002BBAD10823DDE72B68D3E900029047A6
:101D70002369C01A0528B0D96368002BADD10A23A6
:101D8000D0E72B68D3E9000290470E23012220619F
:101D900021462846CDE9003204F128030022FFF74E
:101DA000C4FC002899D02B68D3E900029047236A2D
:101DB0006061192243F480332146284623620DF1E5
:101DC0000F03FFF7EEFC002887D09DF80F30226A42
:101DD000180642EA03222262A0D45907C4D56368D8
:101DE000002B7FF47AAF09239CE70000F7B51D466E
:101DF000023B1746089C00220D2B0E46226004D998
:101E0000174B2360012003B0F0BD8021154804F07A
:101E1000DFF80A2331463A460093ABB2124806F087
:101E200009FE0646104806F0AFFF012240EA0665AB
:101E300080210C4804F0CCF880210A48256004F089
:101E4000B5F801281FBF236843F0804343F0010326
:101E50002360002ED6D12068801B18BF0120D2E756
:101E60000400004000040258884500202DE9F0419C
:101E700000265A4CB8B00F460E6015461660314623
:101E8000D4F8E030142203A84FF0800843F0020396
:101E9000C4F8E030D4F8E03003F002030193019B72
:101EA0000AF05FF8012280214D4804F091F80123E7
:101EB00003A94B48CDE90383CDE9056603F0E6FEAF
:101EC0004146474804F072F8012802D0454B2B6088
:101ED0005CE03146B8220AA80AF043F8424A0023DF
:101EE00008A8CDE908234FF48043209305F0A4FA15
:101EF000064628B106062E60012038B0BDE8F08104
:101F00004FF48050002106F09BFA384B984202D0E3
:101F1000374B2B60F0E7D4F8F03031464246354875
:101F200043F48053C4F8F030D4F8F03003F4805315
:101F30000293029BD4F8983043F48053C4F898304D
:101F4000D4F8983023F48053C4F898300AF009F894
:101F5000294C284B4FF08060284A43F8084C4FF436
:101F6000800353600723D3604FF0A043C2E9060308
:101F70004FF000431046536506F020FC064638B18A
:101F80001E4806F001FF40EA066028600220B4E720
:101F9000A3681B4A23F00F4323F47F0323F47F43FA
:101FA00023F0E003934203D1E46814F0607401D09D
:101FB000144B8CE722462821094804F009F83822FE
:101FC0000223074803A9CDE903230523CDE90643EE
:101FD00003F05CFE0C4B20463B608EE70044025849
:101FE0000004025801000040001000800090D0035F
:101FF000020000409045002000300140884500204C
:10200000070000500300004040420F00084601F066
:10201000EFBF02F043BC0000024602490248FFF74E
:10202000FBBC00BF4CCB00087045002001460148B6
:10203000FFF732BE7045002030B5E7B0104C1FA846
:102040006D46FFF72BFB1FA94FF48E7204F5387015
:102050000AF006F807A801F0A1FD07A9602204F51F
:10206000207009F0FDFF684600F0BEFF04F519740A
:102070000FCD0FC495E8070084E8070067B030BDB6
:102080001446002038B5164D0024FFF7D5FF02F0A6
:1020900005FC4FF47F7168612846EC60FEF752FC46
:1020A000104A11491368C5F8FC0301331360CB6073
:1020B000BFF35F8F2346032B08BF042355F823008B
:1020C00041F823000133B3F5807FF4D1BFF35F8F74
:1020D000136801331360CB60BFF34F8F38BD00BF6F
:1020E000144600201046002000000024012001F0CA
:1020F0007FBFF0B587B01F4604460D461646002147
:10210000142201A809F02DFF2946FAB2204603F057
:102110005FFF002301A92046CDE90156CDE9033335
:1021200003F0B4FD07B0F0BD2DE9F84F074688462F
:1021300092469B46BDF82C9008269DF8305000240E
:10214000EA0959465046640003F042FFFFF7CEFF0C
:1021500001224146384603F03BFFFFF7C7FF4946DF
:102160000A986D0003F022FF0022012808BF44F006
:10217000010441463846EDB203F02AFF013EE4B2C5
:10218000DED12046BDE8F88F38B501224FF48071CA
:102190000E4803F01DFF02F081FB05464FF48071ED
:1021A0000A4803F003FF0128044603D1FFF79EFF0E
:1021B000204609E002F072FB401B0428EED9044BD4
:1021C00001220020C3F8BC2038BD00BF0004025823
:1021D0001446002010B501224FF40071124803F09C
:1021E000F7FEFFF7D1FF044650B14FF400710E48DF
:1021F00003F0DCFE012806D00C4B0222C3F8BC2001
:102200000024204610BD00224FF40071064803F060
:10221000DFFEFFF76BFF00224FF48071024803F0EE
:10222000D7FEFFF763FFECE70004025814460020D6
:1022300070B504460825E2094FF400711C4803F00C
:10224000C7FEFFF753FFFFF79FFF10B9002420469A
:1022500070BD00224FF480711548640003F0B8FE91
:10226000FFF744FF013DE4B2E5D101224FF40071D4
:102270000F4803F0ADFEFFF739FFFFF785FF044677
:102280000028E3D04FF40071094803F08FFE0646A2
:102290002A464FF48071064803F09AFEFFF726FFA6
:1022A000012ED4D1034B0322C3F8BC20CEE700BFDC
:1022B000000402581446002010B500224FF480712B
:1022C000134803F085FE00224FF40071104803F01C
:1022D0007FFEFFF70BFFFFF757FF044601224FF485
:1022E00000710B4824B903F073FE0024204610BD92
:1022F00003F06EFEFFF7FAFE4FF40071044803F09E
:1023000055FE0128F2D0034B0222C3F8BC20ECE7B3
:102310000004025814460020F8B508260025074698
:102320000C4601224FF400711D4803F051FEFFF7E7
:10233000DDFEFFF729FF10B900242046F8BD6D002F
:102340004FF40071164803F031FE0022012808BF47
:1023500045F001054FF48071114803F039FEFFF795
:10236000C5FE013EE3D1E2B24FF400710C4803F028
:102370002FFEFFF7BBFEFFF707FF04460028DBD068
:1023800032464FF48071064803F022FE01224FF4DA
:102390000071034803F01CFEFFF7A8FE3D70CCE778
:1023A000000402580023F7B504460E4615468DF882
:1023B00005308DF806308DF80730FFF70BFF38B980
:1023C0000446FFF779FF64B90024204603B0F0BD4E
:1023D000EE20FFF72DFF0028F2D02046FFF728FF60
:1023E000EEE70028F0D00B2001F002FEFFF7F2FE2E
:1023F00000BB0446FFF760FF002CE5D00028E3D0C7
:10240000FFF7E8FEF8B90027FFF756FF0446002F54
:10241000DAD00028D8D09DF806309DF805201B02A0
:1024200043EA02439DF807201343336002F036FA73
:102430002860CAE7EE20FFF7FBFE0028D9D0002075
:10244000FFF7F6FED5E7EF20FFF7F2FE0028DAD01F
:1024500000210DF10500FFF75FFF0028D3D0002118
:102460000DF10600FFF758FF0028CCD001210DF137
:102470000700FFF751FF0746C6E70000014670223C
:10248000044808B509F0ECFDFFF7FCFDBDE8084085
:1024900001F0B6BC1448002030B5D2B9B3F5806F56
:1024A00017D10E4BDC68E20715D4BFF35F8F4A1ECD
:1024B000184601F2FF3110F8015B02F8015F8A4211
:1024C000F9D1BFF35F8FD868001B18BF012040000F
:1024D00030BD0120FCE70220FAE700BF0000002425
:1024E00008B502F0CFF9BDE8084000F05BBD7047C9
:1024F00008B50422044B41F000411A61C3F8BC1036
:10250000FFF7C0FD00BFFDE7144600202DE9F04FA6
:102510006D4CADF5237DD4F8D06002F07FF802F069
:1025200083F9D4F8E03043F00203C4F8E030D4F883
:10253000E03003F002030993099BD4F8E03043F044
:102540000803C4F8E030D4F8E03003F008030A933D
:102550000A9BD4F8E03043F01003C4F8E030D4F81C
:10256000E03003F010030B930B9BFEF78FF9002371
:10257000012208215548FFF7BCFD002301228021DC
:102580005248FFF7B6FD0123802151481A46FFF754
:10259000B0FD012340214E481A46FFF7AAFD002353
:1025A000012208214A48FFF7A4FD0023012204214B
:1025B0004748FFF79EFD0023012220214448FFF7F2
:1025C00098FD002301224FF400614248FFF791FD7E
:1025D000002310213E481A46FFF78BFD00234FF4DD
:1025E00080513C481A46FFF784FD012304213748F7
:1025F0001A46FFF77EFD01234FF4005135481A4675
:10260000FFF777FD012311224FF480713048FFF767
:1026100070FD012311224FF400712D48FFF769FD71
:1026200000F048FC00232C4A194642F823100133DD
:10263000B3F5807FF9D1294C0823DFF8A49004F189
:102640002005C4E900934FF48063A36040F6FF7354
:10265000E36101232361234B03F14007186808332A
:1026600053F8041C2A46BB4203C21546F6D11E4B42
:10267000082126661B68144E63661C4B1548D3F868
:102680000028A266D3F80428E266D3F80838236746
:102690003369C4F8CC3003F089FCC4F8C800FFF7F4
:1026A000F1FC134B1A68134B9A4203D1356915F0AC
:1026B000380521D0042323610623C4F8BC30FFF77A
:1026C000E1FC00BFFDE700BF0044025800100258C3
:1026D00000040258000C0258000000241446002098
:1026E0004442334D2AC900080010005C00E0F11F8D
:1026F000080000200090D00364204FF0010801F092
:1027000077FC0223C4F8C0802361C4F87480FFF70B
:10271000B9FC4422294644A809F023FC4FF4803335
:1027200042A8CDF80881439304F09EF83368A3676C
:10273000002840F03D82336813F4003F14BF0223A9
:102740000323BF4E4FF00108636701F045FAFFF71E
:1027500099FC0223C4F87C804FF01009C4F8C03003
:10276000FFF790FC0022802130464FF0000A03F072
:102770002FFCFFF7BBFCF2233246082130460096BF
:10278000CDE901932023FFF7CFFC20233246082117
:1027900030460096CDE9019AFFF7C6FC8346FFF765
:1027A000A5FC42468021304603F012FCBBF1E90F44
:1027B000C4F880B014BF03230223E367FFF762FC71
:1027C0004A46514684A809F0CCFB0323C4F8848010
:1027D000C4F8C0307723C4F88830FFF753FCFFF704
:1027E000F9FC002840F0E6810646FFF765FD16B1CA
:1027F000002840F0E98103230426C4F88430FFF761
:1028000041FC0123C4F8C0604FF00009C4F8B430A3
:10281000FFF738FC00224021894803F0D9FBDFF89C
:102820002482FFF763FC4FF480534FF09F0C314636
:10283000032642468248CDF80080CDE9013C4FF4A2
:102840000063FFF771FC4FF480537E4A04217C48FB
:10285000CDF80890CDE900834FF40063FFF764FCE6
:10286000013E40EA0525EED1FFF740FC0122402160
:10287000734803F0ADFB744BC4F8B8509D4214BFCD
:1028800003250225714EC4F8B450FFF7FBFB012568
:102890000623C4F84851C4F8C030C4F85051FFF7BB
:1028A000F1FB284684A9FEF737F8782284A9684806
:1028B00009F0D6FB0821634803F078FBC4F8C80090
:1028C000FFF7E0FB0723C4F8C05112ADC4F8C030D5
:1028D000FFF7D8FB12A8FFF79FFB0FCD0FC60FCD58
:1028E0000FC60FCD0FC695E8070055AD86E8070067
:1028F000FFF7C8FB574B1868083353F8041C2A46E7
:10290000BB4203C21546F6D1534D65AB002695E890
:10291000070083E807000823C4F8C0300123C4E996
:102920008063FFF7AFFB68AA55A9304600F0E4FFCB
:10293000702268A905F5CC7009F092FBFFF7A2FBA5
:10294000FEF7DCFCFFF79EFB032323610523C4F89D
:10295000C03001F0A3FF05F16C03C4F8C400079375
:10296000002601F09BFFD4F8D030742200210133FF
:10297000059007980DF1300BC4F8D03009F0F1FA4A
:1029800001F08CFF0123C4F8D40030A8C4F818313A
:102990000DF1340AC4F8DC3001F098FC309B0322BE
:1029A0000DF138090DF13C08C4F8DC3010AF319B53
:1029B00021ADC4F8E030329BC4F8E430339BC4F856
:1029C0004031349BC4F83831359BC4F8E830369B2D
:1029D000C4F8EC30379BC4F8F030389BC4F8F430BE
:1029E000399BC4F8F8303A9BC4F8FC303B9BC4F8E0
:1029F00000313C9BC4F804313D9BC4F808313E9B38
:102A0000C4F80C313F9BC4F81031409BCBF80060F8
:102A1000C4F81431419BCAF80060C4F844310A2359
:102A2000C9F80060C8F800603E601196C4E946230A
:102A3000D4F88430022B69D108492A4600230FE0DC
:102A400000040258000C02581840EF00D447002040
:102A50005C4700202AC900087C4600209C460020D4
:102A6000013351F8040F082B22F8020BF8D1284645
:102A7000FDF7A3FF002849D02846FDF77BFFEB892F
:102A800003F00F03984241D1D4F8BC304A4659466E
:102A9000482006930023C4F8BC30FFF783FC88B1BC
:102AA000D4F83C3142465146582043F00103C4F863
:102AB0003C31FFF777FC28B1D4F83C3143F00203F6
:102AC000C4F83C31D9F80030DBF80010C4F83031DC
:102AD000D8F80030DAF80020C4F83431D4F8BC302B
:102AE000C4F82011C4F81C31069BC4F82421C4F892
:102AF000BC3058B139B132B16FF07F43994202D046
:102B00009A4240F0D3800B23C4F81C312846724F00
:102B1000FFF78CFA0FCD0FC70FCD0FC70FCD0FC723
:102B200095E8070087E8070001F0B8FEA3690821CF
:102B3000C4F8D80001336948A36103F037FAC4F838
:102B4000C80001F0ABFEE6606061C4F8FC61FEF70E
:102B5000B3FCFFF771FA01F0A1FE4FF47F716061E1
:102B6000A7F5F870FDF7EEFE68AAD4F8D010C4F807
:102B7000FC03A7F5F87000F0E7FE702268A907F1E2
:102B8000100009F06DFAFFF77DFA8021544803F038
:102B900039FA01F083FE059BC31AB3F57A7FBFF4BF
:102BA000E0AE059B03F57A73181A01F021FAD7E617
:102BB0000323C6E5EE20FFF73BFB00283FF414AEED
:102BC0001E20FFF735FB0FE60DF5047ADFF81491B0
:102BD000A0260DF5AA784FF0000B052001F008FAA9
:102BE00088F800B08DF8A0B1FFF7F4FA002842D1C0
:102BF0000590FFF761FB059B002B3FF4FCAD00281F
:102C00003FF4F9ADFFF7E6FA00283DD10590FFF754
:102C100053FB059B002B3FF4EEAD00283FF4EBADDA
:102C2000023698F800209DF8A031F6B243EA02235C
:102C3000B02E2AF8023B49F8043FD1D184A8FDF711
:102C400099FEBDF81E32C4F8AC0084A803F00F034F
:102C5000C4F8B030FDF7B1FE18B1D4E92B239A4285
:102C600022D084A8FDF7A9FE00280CBF0523042369
:102C7000C4F8BC30BFE5EE20FFF7DAFA0028B7D081
:102C80003046FFF7D5FAB3E7EF20FFF7D1FA002877
:102C9000BCD000214046FFF73FFB0028B6D0012101
:102CA00068A8FFF739FBB1E70223A5E50DF1440859
:102CB0003B4621A8CDF80080FDF7E8FE3B68C4F84C
:102CC0002831119BC4F82C3108B90C231CE70223CE
:102CD000C4F818311AE700BFD4470020000C02588E
:102CE000001002589C460020F0B5C46887690C1B90
:102CF000BC4288BF8461052C88BF0468DDE90556A5
:102D000084BF44F01004046004685EB344F002041D
:102D10000DB144F0040413F0530604600AD044F0EB
:102D20000805056045696F1C15BF013544F048046E
:102D300045610460D44303F0510304F053041C4381
:102D4000130403F4A6031C4383682343836026B95A
:102D50004368534013F0530F00D0016192B2C16039
:102D60004260F0BD24F0020444F02004D0E730B407
:102D7000C56915B130BCFFF7B7BF30BC7047F7B5B8
:102D8000164604460D461822002108301F4609F059
:102D9000E8F8B3B201222946204663600023E261CD
:102DA00022603246C4E9035501970093FFF79CFF68
:102DB00003B0F0BD264BD3F8E00010F0080010B5CA
:102DC00042D0D3F8F40010F002003DD0A3F56053D8
:102DD00043F20F321868104037D1DB68134033D10B
:102DE0001C498A68D2B2332A2FD1CA6840F2033113
:102DF00022F0F0021205120D8A4226D14FF0B042A5
:102E0000D2F8801001F0530153291ED1516801F00E
:102E10005301532919D1126802F05302022A14D126
:102E20000D490E4CB1F90020002A0EDB500902F0CA
:102E30001F0254F82000D04010F0010004D00133EC
:102E40000231042BEED1012010BD0020FCE700BFB1
:102E5000004402580004005860CB000800E100E084
:102E6000F7B5EFF3108572B64FF0B043D3F8884052
:102E70000440C3F888400C4B1B6883B17CB101F05F
:102E80000DFD0A4B06461F69FFF794FF00230190D2
:102E90003A463146009323460548FFF768FF85F31D
:102EA000108803B0F0BD00BF144A0020000C025887
:102EB000184A00202DE9F04188B0EFF3108772B670
:102EC0002D4B00242D4D03A92D482C60D3F8E02074
:102ED000DFF8B08042F00802C3F8E020D3F8E02029
:102EE00002F008020192019AD3F8F42042F00202A3
:102EF000C3F8F4205122D3F8F430079403F002030E
:102F00000293029B4FF40413CDE90544CDE903235A
:102F100002F0BCFE4FF4441302211948CDE903131B
:102F200003A902F0B3FE4FF0B0435322C3F8882048
:102F300038F9026B00220E210134304602F028FEDF
:102F4000304602F08DFE304602F062FE042CEFD1D6
:102F500001F0A4FC0A4B04461E69FFF72BFF214633
:102F6000034632460848FFF70AFF01232B6087F328
:102F7000108808B0BDE8F08100440258144A0020CF
:102F8000000C025860CB0008184A00200120FFF70F
:102F900067BF0220FFF764BF1020FFF761BF40202A
:102FA000FFF75EBF0D4B1B6873B5A3B1EFF3108441
:102FB00072B601F073FC0A4B05461E69FFF7FAFE74
:102FC0000123019032462946009300230548FFF76C
:102FD000CEFE84F3108802B070BD00BF144A0020FA
:102FE000000C0258184A002070B5EFF3108672B634
:102FF000054D04460FCD0FC495E8070084E807008F
:1030000086F3108870BD00BF184A00200068704722
:103010000144884201D10120704710F8013BFF2B89
:10302000F7D000207047F0B589B004460025164659
:1030300007A80795049011980390109802900F9894
:1030400001900E98009027692068B84778B1079BD7
:1030500046EAE6762846E3620223A6666362A36A2E
:1030600043F00403A3620323236209B0F0BD0120EF
:10307000FBE770B586B0002401264FF0FF3205ABA8
:1030800005210396054602932346CDE90044FFF748
:10309000CAFF30B30DF115034FF0FF32352128463A
:1030A00003960094CDE901432346FFF7BCFFC0B16E
:1030B0000DF116034FF0FF321521284603960094B8
:1030C000CDE901432346FFF7AEFF50B19DF816301E
:1030D0009DF815201B0443EA02239DF81420134396
:1030E000AB6306B070BD0000C369012B10B5044688
:1030F00004D1D0F88C300BB1036F5BB10E23636247
:10310000A36A43F48043A3624FF0FF33A366032313
:10311000236201E0436A0BB1002010BDFFF7A9FF55
:103120000028F9D0A36B48F20302134205D005230F
:103130006362A36A43F02003E5E7084A134205D01F
:1031400006236362A36A43F04003DCE79905E4D4F5
:1031500007236362A36A43F08003D4E71C400400A2
:1031600030B5044685B01D4662B1013BB3F5805FC2
:1031700008D2B1F1807F05D8C1F18073AB4201D391
:10318000036F5BB108230020A1666362A36A43F466
:103190008073A3620323236205B030BDCDE902250D
:1031A000CDE900330A460321FFF73DFFF4E70000B5
:1031B000F8B53B4B0546FFF729FF984242D1281D41
:1031C000FFF724FF01283DD105F10C00FFF71EFF9A
:1031D0008842044636D105F11C073846FFF716FF32
:1031E000DC282FD805F1FC00FC21FFF70FFF064675
:1031F0002846FDF7A7FB864224D105F11000FFF712
:1032000005FFB0F5805F1DD2B0EB143F1AD805F171
:103210000800FFF7FBFE034605F11800FFF7F6FE76
:1032200006463846FFF7F2FE012B01460CD1C4F3E7
:103230000B04344306D1542804D105F11400FFF7E0
:10324000E5FE20B30020F8BD9A1E012AFAD8022B11
:10325000C4F3032407BF0322482305229023002C34
:10326000F0D0013CB4FBF2F002FB1044B442E9D1CF
:10327000032A0CBF02220422B24218BFDC238B4275
:10328000E0D105F11400FFF7C1FE0028DAD001F10A
:103290002000C1F1DC012844BDE8F840FFF7B8BECA
:1032A0004D334C472DE9F04F0D4604469146002121
:1032B0002F4641F2E8028BB098464FF0010B08F020
:1032C00050FE2646D9450FCF0FC697E807004FF0AE
:1032D000FF3786E80700C4F81C90C4F820B0A76642
:1032E00007D90F224FF40043C4E9092303232362C3
:1032F00052E04C22414604F1940008F0B1FE002354
:1033000007AA04F1300107932868EB68984748B191
:10331000079BC4F824B0E362A36A43F00203A362EC
:10332000A766E3E728680621AB6898472046FFF7C1
:10333000A0FE88B348F20106A36B1E4005D005230A
:103340006362A36A43F02003E9E74FF0030A0DF13B
:10335000200833463A469F212046CDF80CA000961F
:10336000CDE90168FFF75FFEB0B19DF821309DF80F
:1033700020201B0243EA02439DF822201343634AA4
:10338000934263630BD0A36AC4F824A043F00803FC
:10339000A362A766C4F820A00BB0BDE8F08F082395
:1033A00032465A212046CDE90283CDE90066FFF777
:1033B0003AFE0028F0D004225549404608F0A8FD06
:1033C000034628B104236362A36A43F01003DFE7D6
:1033D00008224B21CDE90282CDE900003A46204681
:1033E000FFF721FE0028D7D0434603CBC4F8E00006
:1033F0004046C4F8E410FFF709FEE06309A8FFF7B0
:1034000005FEB9F1010F2064C4F88CB03DD0002650
:1034100004F1E803B24604934FF48053049A314612
:103420002046FFF79DFE0028B6D04FF48051049847
:103430000AF10107FFF7ECFD00B9A764DDF810B051
:103440004FF0000805964FF480715846FFF7E0FDF5
:1034500008B3A16F0131A167059B08F101080BF5C5
:10346000807B03F58073B8F1100F0593EBD1AB6946
:10347000676403B31AF01F0F1DD104F11C01286803
:10348000984706F58056BA46C6E72046FFF72CFE59
:103490000028BCD180E705995846FFF789FE18B986
:1034A000216D01312165D7E7B8F1000FD4D1E16C6E
:1034B0000131E164D0E7B7F5805FE2D1A36CC4E9E4
:1034C0001533B9F1000F14D16B6907A92868984723
:1034D00058B1079BE36202236362A36A43F00403CB
:1034E000A3624FF0FF33A36600E7012323670223A3
:1034F000FDE6B3F5805FFAD10D236362A36A43F45E
:103500000053A3624FF08073EDE700BF1840EF0057
:103510006BC900080846FEF7B1BF000070B59CB04B
:103520000E46342200210FA84FF0807408F019FDD8
:1035300003234FF480700EAD0E934FF4005311939C
:103540004FF48063CDE914030123CDE917436C46A2
:103550000FCD0FC40FCD0FC40FCD0FC495E80300DE
:1035600000230EAA84E8030069460A48CDE90E3319
:1035700003F04AF80446074803F026F940EA0460DD
:10358000002C08BF0028306014BF012000201CB0B0
:1035900070BD00BF245B00202DE9F043614C002585
:1035A000BBB016460D60884615601422D4F8E03092
:1035B00029460DEB0200402743F00203C4F8E03037
:1035C000D4F8E03003F002030193019BD4F8E0301B
:1035D00043F00803C4F8E030D4F8E03003F0080307
:1035E0000293029BD4F8E03043F01003C4F8E030BB
:1035F000D4F8E03003F010030393039B08F0B1FC10
:1036000001224021484802F0E3FC012305A9464875
:10361000CDE90573CDE9075502F038FB394642483C
:1036200002F0C4FC0128814602D0404B336012E016
:103630002946B8220CA808F094FC4FF0024200235F
:103640000AA8CDE90A2330231D9303F0F5FE0546B1
:1036500028B10506356001203BB0BDE8F0834FF08E
:103660000070002104F0ECFE314B984201D0314B48
:10367000DCE7D4F8D43029463A462F4843F4804357
:103680000425C4F8D430D4F8D43003F48043049330
:10369000049BE36F43F48043E367E36F23F48043C9
:1036A000E36708F05EFC244A244B1721A2F10C00CA
:1036B00042F80C3C072342E902354FF44073C2E95B
:1036C000011302F0D1FD044630B11D4803F07CF82F
:1036D00040EA04603060BEE71421194803F0C2F8E4
:1036E000022305A9104806930923CDF820900993D9
:1036F000059502F0CBFA05A9124802F0C7FA4FF47B
:10370000605305A91048059302F0C0FA0A23064841
:1037100005A90597099302F0B9FA0C4B2046C8F8A1
:10372000003099E7004402580004025801000040AC
:103730000090D00302000040305B00200050005297
:10374000245B002000100258000C025800127A007E
:10375000084600F04DBC01F0A1B800002DE9F0478B
:103760009CB0154600229946289E0C46DDE9267835
:10377000DDE924A33260002F00F09580002B40F09B
:10378000928001F0EF03052B01D035296FD16A1C1F
:1037900040F089805AEA090340F08580B8F1010FB2
:1037A00040F081800021302210A808F0DAFB4B2C79
:1037B0006FEA050225EAE57512BF00234FF4804346
:1037C0004FF440314FEAD27218BF1946BAF1000FD8
:1037D0004FEA8222CDF84C900CBF4FF080704FF032
:1037E0004070CDF86080CDE90E454FF400540EAD29
:1037F000CDE911414FF480716C46CDE91412CDE949
:1038000016300FCD0FC40FCD0FC40FCD0FC495E8E8
:103810000300142284E803006946344802F0CAFD1C
:10382000044628B914223946304802F08BFE04467B
:103830002E4802F0C9FF40EA046030600CB900284D
:1038400052D0142200210EA808F08BFB0122402147
:10385000274802F0BDFB402201230EA92448CDE9F0
:103860000E230023CDE9103302F010FA1DE09F294A
:1038700007D16B1C17D15AEA090314D1B8F1030F11
:103880008EE74B2907D1681C0DD15AEA09030AD1EA
:10389000B8F1080F84E75A290BD155EA0A0302D17F
:1038A000B9F1080FF4D0134B336001201CB0BDE810
:1038B000F087032901D06B29F5D1002DF3DB08F146
:1038C000FF33B3F5805FEED2C8F18073AB42EAD329
:1038D000E31E18BF0123B9EBC30FE4D1A4F16B01C0
:1038E0004B424B4153455BE72046DFE7245B00201A
:1038F0000004025803000040F0B50F4D89B08C461B
:103900000746164601AC0FCD0FC495E8070001230A
:1039100084E80700094C3A4601A909482360634638
:10392000FFF7C0FC70220749304608F099FB0023DE
:10393000236009B0F0BD00BF68CB0008384A002002
:103940003C4A0020584A002010460449702208B51D
:1039500008F086FB024B00221A6008BD584A00207E
:10396000384A00202DE9F74F06468A4617460029B7
:1039700034D0531EB3F5806F30D2B0F1807F2DD894
:10398000C0F18073934229D3294DD5F80080B8F156
:10399000000F4BD1274C0120D4F820B0BBF1020F0F
:1039A0001DD1D4F88C30D3B1D4F870902860B9F11F
:1039B000000F18D0204802F009FF98B1A36A1E48F2
:1039C00043F00403C4F824B0A3620323236202F08B
:1039D000FBFEC4F87080E062C5F80080022003B0EE
:1039E000BDE8F08F20673B46524631461148FFF74D
:1039F000B7FB08B92860F1E7B9F1000F13D001A9AE
:103A00000020FFF78BFD60B102236362A36A43F0DD
:103A10000403A36203232362019BE36200232B6060
:103A2000DCE70123236700202860D8E70120D6E7E0
:103A3000384A00203C4A0020245B002000487047A0
:103A4000CFCB00080028024818BF0020704700BFF5
:103A500084CB000870B52A4D8AB0064605AC0FCD60
:103A60000FC42B68236066B9264B40F209425A8086
:103A70000123013323485B0043F4407303800AB001
:103A800070BD032E27D1204B6A4603F1100518683C
:103A9000083353F8041C1446AB4203C42246F6D143
:103AA0001B781849194A1A48237013780AAC04EB9A
:103AB000131313F8283C4B8012F8013B03F00F035B
:103AC000824203F128036B4413F8283C21F8043F99
:103AD000EBD11823CDE7042E0FD80AAB094903EB2D
:103AE0008606002356F8140CC25C002AC1D0272B8E
:103AF000BFD0013321F8022FF6E70020BFE700BF57
:103B0000E4CB0008705B002070C9000800E8F11FDA
:103B10000CE8F11F10461A4608B5FFF723FF18B14D
:103B2000012814BF0320022008BD00000B4A0C4BE3
:103B300011681964916A5964116C9964526DDA6460
:103B4000084A12691A65084A12682AB1074A926B34
:103B50005A65074A52689A65704700BF0044025888
:103B60003C600020000C0258D45B0020000008409C
:103B70000008084008B5FFF7D9FF044B062258603B
:103B80001A6000229A60024B1A6008BD3C60002057
:103B9000D45B00200121002005F0DABD08B50C4BF4
:103BA0000C49D3F850248A62D3F85424CA62D3F85B
:103BB00058240A63D3F85C24D3F860344A638B63D7
:103BC000FFF7B4FF6022034908F04AFA08BD00BFBE
:103BD000D85B00203C6000202DE9F04F5C4B0025B5
:103BE000B9B05C4E1D604FF001085B4B5C225B4F2F
:103BF00029461D6030465A4B5A4C1D603D6008F006
:103C0000B0F9594B2946594A594846F8048C00F0F6
:103C10000BFAD4F8E0301022294643EA08030DEBF2
:103C20000200C4F8E030D4F8E03003EA080300935F
:103C3000009BD4F8E03043F00803C4F8E030D4F837
:103C4000E03003F008030193019B08F08AF94FF478
:103C50000043484803A9039302F018F82368980327
:103C600005D44046FFF786FF39B0BDE8F08F2168E4
:103C700011F0A85101D00220F4E7A36AB8220AA8E3
:103C8000022523F003034FF4802A4FF0000B43F08A
:103C90000203A36208F065F94FF40013192108A884
:103CA0002A93C0231695CDE912130423CDE91453AA
:103CB0004FF40073CDE908AB189303F0BDFB8146C8
:103CC00008B10320CEE75046594604F0B9FB2A4B11
:103CD000B060984204D1294B1A68294B9A4201D00E
:103CE0000420BFE74FF4C05303A92648CDE90335AC
:103CF0000A23CDE90595079301F0C8FF02F0CEF93C
:103D0000D4F8D8304A46062143F000636520C4F851
:103D1000D830D4F8D83003F000630293029BD4F873
:103D2000803043F00063C4F88030D4F8803023F052
:103D30000063C4F8803001F02BFFC7F80080C6F89C
:103D4000048046F8045C00F0A9FD0F4B18608BE777
:103D5000C05B002040600020CC5B0020D45B0020D2
:103D6000D05B002000440258153B0008992400084D
:103D7000D85B0020000C0258006CDC020800002018
:103D80000090D00300000258C85B0020034B9A69E2
:103D900001329A6104221A60704700BF3C60002023
:103DA000024B032202481A6000F04CB93C6000202C
:103DB000D85B0020034BDA690132DA6105221A6010
:103DC000704700BF3C60002008B506F063F8024B66
:103DD0000330186008BD00BF3C60002010B50C46E1
:103DE00058B951B9054800F02DF9204606F0D2FE29
:103DF0002046BDE8104006F0EDBE10BDD85B0020A7
:103E00002DE9F347FDF758FB6E4B1B68002B00F0C4
:103E1000A8806D4D2C68002C40F0A38001236B4FCF
:103E20002B6000F03BFD6A4A064613681060694A41
:103E30001168694A8A430ED03B682BB106F03AF804
:103E4000204606F0B3F83C60644800F0FBF806201A
:103E5000FFF790FE83E0624CC31A4FF400416148C3
:103E6000E26B934288BFE36302F0A0F80128814629
:103E7000D7F800805DD14FF0030AC4F808A0B8F16C
:103E8000000F71D00021084606F040FB06F002F852
:103E9000A36843EA80030020A36006F049FEA368FC
:103EA000314643EAC0034D48A36000F0D3F805F063
:103EB000F1FF002853D005F0F5FF00284FD106F0A0
:103EC00037FE00284BD04FF04008DFF81091D9F8AA
:103ED0004474B7B9384606F03FFE90B1012201A9FB
:103EE000384606F04FFE01280BD1236A32469DF872
:103EF000041048460133236200F0BEF8B8F101080F
:103F0000E5D1002601A93548019600F081F9019A12
:103F1000014622B3304606F04DFE074601462F48C3
:103F200000F082F9636A30463B44636206F04AFE61
:103F300015E001230026A3602B4B1E60B8F1000F93
:103F40000BD005F0B7FF304606F030F86369234820
:103F500001333E60636100F075F8022323600023A3
:103F60002B6002B0BDE8F0871F4A204B116811B9E1
:103F700010601E60F3E71B68F31A132BEFD9ADF83E
:103F8000000001AA64214046CDF8048005F0A4FF9A
:103F900048B905F099FF20B105F08CFF002006F02C
:103FA00005F8052054E76946404605F0A1FB0028C6
:103FB000EFD02369C7F800900133C4F800A0236153
:103FC00060E700BFD45B0020CC5B0020D05B00200A
:103FD000C85B00200044025800000220D85B00208B
:103FE0003C600020000C0258C05B0020C45B002035
:103FF00038B5044600F052FC0546631C00D001347D
:1040000000F04CFC401BA04200D338BDFFF7F8FE87
:1040100000BFF5E7006870470B0A017043700B0C96
:10402000090E8370C1707047F8B504460F461646F6
:104030001D4640F26442002107F093FFA560C4E9E9
:104040000076F8BD0023C0F84834C0F84434C0F806
:1040500040347047D0F840346BB1D0F84C34C91AB2
:10406000B1F5FA7F07D90023C0F84034D0F85834AE
:104070000133C0F8583470472DE9F843D0F8443480
:1040800004460D46002B40F0BD801146FFF7E2FFCD
:10409000D0F84034C0F84C245A1C0344172AC0F806
:1040A00040241D7316D9042257490C3007F030FF05
:1040B00098B1D4F85434172204F10D0104F10C0026
:1040C0000133C4F8543407F033FFD4F84034013BD3
:1040D000C4F840340120BDE8F88304F12000142125
:1040E000FFF798FF064604F10C00FCF72BFC864214
:1040F000DFD104F11400228AFFF78CFF804604F11F
:104100001800678AFFF786FF064604F11C00FFF7D8
:1041100081FFD4F85034012A054603F10103C4F8A5
:104120005C84C4F8503407D0D4F8543401200133EF
:10413000C4F8543400251EE0012F4FD1002EF3D1D6
:10414000B0F5806FF0D1D4F80490B9F1000FEBD046
:104150002B46324604F13C012068C847032803D8A7
:104160000128E1D0032849D1D4F860340025032088
:104170000133C4F86034254B4FF00009414684F800
:104180002A001B6804F12C0084F82B9004F124020F
:10419000636201232385FFF73FFF314604F13000BE
:1041A000FFF73AFF294604F13400FFF735FF39469F
:1041B00004F13800FFF730FF05F1180110461C35F7
:1041C0005618FCF7BFFB01463046FFF725FFC4F841
:1041D0004094C4F84894C4F844547BE7022FA3D118
:1041E000431EB3F5806F9FD2B6F1807F9CD8C6F195
:1041F0008073834298D3D4F80890A6E70028BAD0F9
:10420000022097E7002066E7C4C90008C9C9000872
:10421000D0F84824D0F844349B1A00F124020B60F3
:10422000D0F8480410447047D0F84424D0F84834FB
:1042300010B5D41A8C420CD30B449A42C0F84834BF
:1042400001D0012010BD0023C0F84434C0F8483428
:10425000F7E70020F6E7000070B5002388B00625D8
:1042600004240E4601900DEB04011748CDE90633F6
:104270000723CDE9025340F2FF73CDE9043400F087
:1042800005FCE8B90120FFF7B3FE0F4801F0AEF8D6
:10429000C0B914210C4800F041FB28B10A4801F0D4
:1042A00063F9284608B070BD074800F0D3FB3060C2
:1042B000054801F059F9002814BF07200020F1E754
:1042C0002046EFE70520EDE7A86000202DE9F04348
:1042D000442204468DB000210430DFF82C8207F020
:1042E00040FE8A4B03228A4FB3F86030226063613C
:1042F000884B1E68002E40F09780874D4FF00109D3
:1043000007A98648C3F80090D5F8E03043F00403CD
:10431000C5F8E030D5F8E03003F004030493049BC3
:10432000D5F8F43043F00203C5F8F430D5F8F43092
:104330000B9603F002030593059B0C23CDE9096658
:10434000CDE9073201F0A2FC4FF08061084600F091
:10435000B1FA4FF00061084600F0ACFA704B5B68B0
:1043600003F04063B3F1406F40F08580EB6C4FF495
:104370000020002123F04053EB64AB6D23F4403365
:1043800043F40033AB6504F05BF8664B984274D19C
:10439000D5F8E030384643F08073C5F8E030D5F802
:1043A000E030C8F8009003F080730693069BD5F8C0
:1043B000883043F08073C5F88830D5F8883023F012
:1043C0008073C5F888304FF4E01305F5E055FE60C2
:1043D000C7F818903D60C7E901360423C7E908967D
:1043E0003B61C7E90A66C7E90C6601F08FF900284E
:1043F00045D1AA684C4B134043F0004343F480334B
:10440000AB6000F04BFA8146AB68002B07DA00F096
:1044100045FAA0EB0900C728F6D9032602E00120DF
:10442000FFF7E6FD414B1E60404B1B68E360636095
:104430004BB9636942F21072A3F59C43203B93424F
:1044400038D90823636000F029FABB6D2063A360AC
:10445000334B5B686363D8F800304BB1344B9B68D7
:10446000A363344BDA69E263DA6822649B686364AD
:104470000DB0BDE8F0830A26D4E74E46D2E7022607
:10448000D0E70923DEE704F12C03029304F12803AB
:10449000019304F124030093D4E90723D4E905012F
:1044A000FCF7A3FA0028ECD06368002BCBD10223E1
:1044B0002360C8E704F118011F48FFF7CDFE6060D4
:1044C0000028C0D1236904F11C01012043F001033D
:1044D0002361FFF7C1FE60600028B4D1236904F1B5
:1044E0002001164843F002032361FFF7B5FE606028
:1044F0000028A8D1236943F004032361BB6D002B7E
:10450000C1D00B239EE700BF9C60002000E8F11F94
:10451000A8600020A460002000440258000802584F
:10452000000400580090D003C0FFFE3FA0600020B0
:1045300000630258006002580000B8CF0200300447
:104540002C4A136803F00F03062B05D8136823F0D9
:104550000F0343F007031360274B1A6842F0010270
:104560001A6000221A61254A19680A4021491A6016
:104570000A68100705D50A6822F00F0242F0070208
:104580000A6000221E499A61DA611A6299621D4925
:10459000D9621D4919635A639963DA6319645A64CD
:1045A000196821F4802119601A66184B1B686FF393
:1045B0000F03B3F1005F03D2154B0122C3F80821AA
:1045C0000D4BD3F8D420D2040FD4D3F8D42043F227
:1045D000D20142F48052C3F8D4200E4A1160D3F8BD
:1045E000D42022F48052C3F8D4200B4B4FF0006249
:1045F0009A60704700200052004402587FEDF6EAAE
:10460000000202020000FF01800201010010005CB4
:10461000008000510040005200ED00E02DE9F04123
:10462000494C236903F03803102B00F08B8016D817
:10463000BBB146484449464A8B69C3F30323D35C64
:10464000D8408B6903F00F03D35C424A03F01F0389
:1046500020FA03F31360404B1860BDE8F081182B7B
:1046600005D023683D48C3F3C103D840E2E7A56AFB
:10467000A36AD4F82C8013F47C7FC3F30510666B17
:10468000D8D007F0B9FDC6F3CC06074608F0010004
:1046900005F00305704307F0AFFD4FF0645107F0DC
:1046A00003FE012D06462BD0022D3BD023682B485C
:1046B000C3F3C103256BD84007F09EFD394607F0D0
:1046C000A7FE0446C5F3080007F096FD314607F043
:1046D000E3FC4FF07E5107F0DFFC0146204607F077
:1046E000E3FD194B0446186BC0F34620013007F078
:1046F00083FD0146204607F08BFE07F025FF99E772
:10470000206BC0F3080007F077FD314607F0C4FCCA
:104710004FF07E5107F0C0FC39460446104807F0C0
:1047200077FEDAE7206BC0F3080007F065FD31463D
:1047300007F0B2FC4FF07E5107F0AEFC394604465C
:104740000848ECE7084875E70044025800093D00B6
:10475000F8CB000804000020080000200090D003DF
:104760000024744A20BCBE4B40787D01044BDA68BB
:1047700042F00202DA605A689204FCD5704700BF2A
:1047800000480258DFF838D0FFF7F0FFFFF7D8FEF7
:104790000C480D490D4A002302E0D458C45004339C
:1047A000C4188C42F9D30A4A0A4C002301E0136072
:1047B0000432A242FBD307F0DDFBFDF7A7FEFEE7C4
:1047C0000000022000000020340000208CCC0008F3
:1047D00034000020E4670020FEE7704738B50F4B37
:1047E00005461A780AB9012038BD4FF47A73B3FB35
:1047F000F2F30B4A1068B0FBF3F001F01DFA044627
:104800000028F0D10F2DEED8024629464FF0FF3098
:1048100001F0BEF9034B20461D60E5E70C000020C7
:10482000080000201000002010B5032001F092F9CC
:1048300002F090FB0F49104A8B69C3F30323D35C4A
:1048400003F01F03D8408B6903F00F03D35C0B4ABE
:1048500003F01F0320FA03F31360094B18600F20C5
:10486000FFF7BCFF044618B9FFF7B7FF204610BD9D
:104870000124FBE700440258F8CB000804000020A4
:1048800008000020034A044B11681B780B44136096
:10489000704700BF0C6100200C000020014B18681D
:1048A000704700BF0C610020014B1868000C704776
:1048B0000010005C10F0706F38B504460D4604D14E
:1048C00040F27A210448FDF713FE044B596821EAAF
:1048D00004012943596038BDCEC9000800040058BE
:1048E000084B1B6803F04053B3F1805F03D1C068ED
:1048F00000F01C007047C36803F01C031C2BF6D1AA
:10490000102070470010005C806800F001007047C4
:104910008068C0F380007047704700002DE9F041C7
:1049200003680F46454904468B4229D0444D454A09
:104930004548AB4218BF024696688B4206F01F06F8
:104940000AD03F4A934207D0404A934204D040F2F3
:104950002D613F48FDF7CCFD2569082D23D040F29D
:1049600021232268F340D9070CD5D36813F0010F37
:1049700018D0636D012043F020036365BDE8F0812A
:10498000304AD9E72D4B9A420AD02D4803F540739F
:104990002D49824218BF0B469B6813F4404FE7E74E
:1049A000284BF9E70425FFF779FF804623681A684A
:1049B0002A4225D0626D42F400726265DA6812F410
:1049C000406F0FD1627D6AB91A6817070AD5626D08
:1049D00022F480726265626DD00403D4626D42F08D
:1049E00001026265164A934204D140F22122F2404C
:1049F000D1071BD5DA68082D1BD11D600020BDE74B
:104A00007A1CD4D0FFF74AFFA0EB0800B84201D8C7
:104A1000002FCBD123681B682B40C7D1626D0320C8
:104A200084F8503042F004026265A7E7034AD26876
:104A3000E1E75204E2D40C221A60DFE700200240D2
:104A40000021024000230240006302580060025827
:104A5000EFC9000803680A4A934210B504460BD018
:104A600002F58072934207D0064A934204D040F682
:104A70002B110548FDF73CFD2368186C10BD00BFE5
:104A80000020024000600258EFC900080023F7B57B
:104A9000134A054601930C46036893420BD002F576
:104AA0008072934207D00F4A934204D040F60D31F2
:104AB0000D48FDF71DFD6368B3F58C7F18D8FF2BFB
:104AC00008D89A1F122A08D940F60E310648FDF779
:104AD0000FFD1BE0A3F5807313E0044A12E000BF52
:104AE0000020024000600258EFC900084010040195
:104AF000B3F5067F00F24681B3F5007FE4D3A3F55A
:104B00000073AB4A22FA03F3DB07DDD5A368072B5A
:104B100004D940F60F31A748FDF7EAFCE36840F2FC
:104B2000FF72934207D0A44A934204D04FF43161FC
:104B3000A048FDF7DDFC2369042B04D940F61131B0
:104B40009C48FDF7D5FC95F838306269012B286840
:104B500040F02281EB6B0133B2FBF3F2FFF7C0FEB2
:104B60004FF6FF734008C3409A4204D940F615310E
:104B70009048FDF7BDFC2A68904B9A420BD12369FF
:104B8000042B08D095F83830012B04D140F62A3197
:104B90008848FDF7ADFCE268874B9A4200F02E8111
:104BA0002368012B4CD0864A934249D0854A9342D0
:104BB00046D0854A934243D0844A934240D002F182
:104BC0008662103293423BD0814A934238D002F140
:104BD00086624032934233D07E4A934230D002F113
:104BE000866202F5807293422AD07B4A934227D094
:104BF00002F1042202F54012934221D002F18662B2
:104C000002F5006293421BD0744A934218D0744A52
:104C1000934215D0734A934212D023F00043724A54
:104C200093420DD0714A93420AD0714A934207D001
:104C3000704A934204D04FF433615E48FDF758FC4C
:104C400095F85030012B00F0D28201212B6885F8B5
:104C500050101846FFF75CFE002840F0C282226820
:104C6000002A4FEA926008DBC2F31306002E40F0E0
:104C70006B818140DA690A43DA61616803F1300CC3
:104C80001F2700F01F008E0901F01F0106F00C061F
:104C90008F4088405CF8062022EA0702024318464B
:104CA0004CF80620FFF734FE9A6802F0080202432F
:104CB0005CD1216803F114070726C80DC1F3045124
:104CC00000F004008E403A5822EA0602A6688E40A0
:104CD00032433A50484A6169126802F07042B2F1B8
:104CE000805FDA6840F03881C2F3820252002669A0
:104CF00091402068042E00F03881603300F0F840C5
:104D000053F8262002F0004202430A4343F82620CB
:104D1000637E012B04D940F68E312648FDF7E8FB6F
:104D2000617E2A6820694F1E6032794252F8203035
:104D3000794123F0004343EAC17342F82030237ED7
:104D4000012B04D940F692311A48FDF7D1FB227E9F
:104D50002B68561E20691969724200F01F0021F469
:104D6000F0417241D20282400A431A611846FFF7AD
:104D7000CBFD002800F021810020002385F8503071
:104D800003B0F0BDB3F5407F3FF4C0AE40F2063251
:104D900093423FF4BBAE97E6FFF7A2FD4FF6FF73D9
:104DA0004008C3409342BFF4E6AE40F62131DFE64F
:104DB00041100401EFC900080000FF4700600258DD
:104DC00002003004040060080800900C1000C010BD
:104DD00040002019000180210004002A00209036A4
:104DE0000040C03A0080F03E0000214300005247DE
:104DF0000000844B0000B84F0010005C2A68A34BF1
:104E00009A4235D12368A24A93423FF419AFA14A8E
:104E100093423FF415AFA04A93423FF411AF9F4A2B
:104E200093423FF40DAF02F18662103293423FF499
:104E300007AF9B4A93423FF403AF02F1042202F50D
:104E4000401293423FF4FCAE02F1866202F500622A
:104E500093423FF4F5AE934A93423FF4F1AE924A47
:104E600093423FF4EDAE40F636319048FDF740FBFB
:104E70002A688F4B9A4231D12368854A93423FF486
:104E8000DFAE844A93423FF4DBAE834A93423FF461
:104E9000D7AE824A93423FF4D3AE02F1866210321B
:104EA00093423FF4CDAE7E4A93423FF4C9AE02F145
:104EB000042202F5401293423FF4C2AE02F1866230
:104EC00002F5006293423FF4BBAE774A93423FF44F
:104ED000B7AE40F63A317548FDF70AFB2A68754BC4
:104EE0009A427FF4ADAE2368694A93423FF4A8AE7C
:104EF000684A93423FF4A4AE674A93423FF4A0AE9F
:104F0000664A93423FF49CAE02F1866210329342AD
:104F10003FF496AE624A93423FF492AE02F104220D
:104F200002F5401293423FF48BAE634A93423FF442
:104F300087AE624A93423FF483AE614A93423FF4A4
:104F40007FAE4FF4346178E692FAA2F20AB1B2FA77
:104F500082F2012191408DE612F0100FDA683FF4E1
:104F6000C3AE520802F00802C1E61A6E810602F0D2
:104F7000F842B2EB806F03D11A6E22F000421A663B
:104F80005A6E02F0F842914203D15A6E22F000426A
:104F90005A669A6E02F0F842914203D19A6E22F05C
:104FA00000429A66DA6E02F0F84291427FF4DEAE79
:104FB000DA6E22F00042DA66D8E62168D3F8C02023
:104FC000E468C1F3130004F0180622EA00023D4829
:104FD000F04008400243C3F8C0203B4A944240F0EE
:104FE00083802A4A93422CD1294A914200F08F8033
:104FF000284A914200F08D80274A914200F08B8030
:10500000264A914200F0898002F186621032914274
:1050100000F08580224A914202F1042202F54012FA
:1050200057D0914254D002F1866202F5006291425B
:105030002AD01C4A914268D01B4A914273D1234A1C
:1050400047E01B4A93426ED1114A91425FD0114A08
:1050500091425ED0104A91425DD0104A91425CD09C
:1050600002F186621032914259D00D4A914258D0D5
:1050700002F1042202F54012914202F1866202F529
:10508000006226D09142D7D10B4A22E00020024094
:1050900002003004040060080800900C1000C010EA
:1050A0000004002A000021430000844BEFC90008DF
:1050B0000021024000600258002090360040C03AB3
:1050C0000080F03EFFFF0F000000FF470000B84FD8
:1050D000484A92FAA2F20AB1B2FA82F2012000FA28
:1050E00002F2D8690243DA610029BFF645AE424AAE
:1050F00093421AD1D2F808433F48FFF705FC024615
:105100003E48FFF701FC10431AE03D4AE1E7012267
:10511000DFE73C4ADDE73C4ADBE73C4AD9E73C4A6B
:10512000D7E73C4AD5E70122DBE7344A934202D174
:10513000D2F80842E0E7384A38489468FFF7E4FBC1
:1051400080F0010000F0010000284AD0344804F04B
:10515000E07281421ED124023FF50EAE2F498B42F0
:105160007FF40AAED1F8083323F0E07313432D4ADD
:1051700043F40003C1F808332B4B1B68B3FBF2F375
:1051800001335B000193019B002B3FF4F5AD019BC4
:10519000013BF7E72548814210D1E0013FF5ECAD36
:1051A0001E498B427FF4E8ADD1F8083323F0E07359
:1051B000134343F08073C1F80833DDE51C48814296
:1051C0007FF4DAAD61023FF5D7AD14498B427FF42D
:1051D000D3ADD1F8083323F0E073134343F48003D5
:1051E000E9E76B6D012043F020036B65C5E5022004
:1051F000C6E500BF001060320020024000210240DE
:1052000000005247400020198000501D00018021FD
:105210000002B0250008302E0063025800600258DA
:10522000000084CB400D030008000020000052C79E
:105230000000B8CF03683E4A934270B504460D465D
:105240000BD002F58072934207D03A4A934204D0C1
:105250004FF45E613848FDF74BF96B1E022B04D901
:1052600040F6E1513448FDF743F923681846FFF74B
:105270004FFB9A6802F00802024301D1002070BD82
:10528000DA6896013BD5627D012A38D1227D012A58
:1052900035D12A4A19684D0625D5402201251A60C4
:1052A0001846FFF735FB50B19A68900707D49A6803
:1052B00022F0004222F03F0242F010029A60012DDB
:1052C0001FD10425FFF7EAFA064623689B682B42A4
:1052D000D4D0FFF7E3FA801B0528F6D923689B6832
:1052E0002B42F2D001E0013AD4D1636D012043F0AA
:1052F00010036365A36D43F00103A365BFE7022DAF
:10530000CED19A6811070AD59A68920707D49A688D
:1053100022F0004222F03F0242F020029A60022D69
:1053200003D0032DCDD10C25CCE70825CAE700BF5B
:105330000020024000600258EFC9000801DC0C00A8
:10534000026838B504461046FFF7DEFA08B10020BF
:1053500038BD9168214B194209D0636D012043F09B
:1053600010036365A36D43F00103A365F0E7936841
:1053700023F0004323F03F0343F001039360FFF762
:105380008DFA2368164A0546934221D002F58072B1
:10539000934220D1134B9B68D906D8D12268136859
:1053A000DB07D4D41046FFF7AFFA38B9936823F07F
:1053B000004323F03F0343F001039360FFF76EFACD
:1053C000401B0228EAD923681B68DA07E6D4C4E741
:1053D000044B9B68E2E7044BFBE700BF3F00008003
:1053E00000200240002302400063025803683E4A46
:1053F000934270B5044651D13C4B9D682068FFF73D
:1054000087FA064600286DD194F85030012B69D0F8
:105410000123204684F85030FFF792FF00285ED128
:10542000636D05F01F02324923F4706323F001031A
:1054300043F48073636523688B423ED1002A3ED1DA
:10544000A1F58071656D25F480156565656D15F4B0
:10545000805502D0A56D25F00605A5651C258B425B
:105460001D604FF0000584F8505005D040F2212512
:1054700025FA02F2D50724D5DA68920105D5626DC6
:1054800022F4405242F4805262659A6822F000424F
:1054900022F03F0242F004029A6070BD144A934227
:1054A000AAD0144A9568A2F540729342A6D040F261
:1054B0007C511148FDF71CF8A0E71946C2E70A49DC
:1054C000C4E7636D43F480136365CB689B01E4D547
:1054D000636D23F4405343F480536365DDE784F840
:1054E0005060DAE70220D8E70020024000230240A3
:1054F0000021024000630258EFC90008026838B575
:10550000044610469368FFF7FFF908B9002038BD3C
:105510009907FBD4936803F00D03012B19D193680D
:1055200023F0004323F03F0343F00203936003237F
:105530001360FFF7B3F9054623689B68DB07E5D5E1
:10554000FFF7ACF9401B0228F6D923689B68DA07FD
:10555000F2D5636D012043F010036365A36D43F042
:105560000103A365D3E700000368194A934210B50D
:1055700004460BD002F58072934207D0154A93423D
:1055800004D040F2F3511448FCF7B2FF94F85030C5
:10559000012B1AD001230321204684F85030FFF755
:1055A00049FE20B10120002384F8503010BD204670
:1055B000FFF7A4FF0028F5D1636D23F4885323F08F
:1055C000010343F001036365EDE70220EEE700BF4E
:1055D0000020024000600258EFC9000838B5444A74
:1055E00005460368934203D002F58072934225D1A9
:1055F000404B9B6813F4403F14BF01230023FBB9C9
:105600004FF40020002102F01BFF6B680446B3F545
:10561000101F4AD03FD8B3F5E01F44D036D8B3F5B9
:10562000801F08D02CD8B3F5002F04D023F400221B
:10563000B2F5802F16D19B0C5B000FE02E4BD8E704
:1056400001F034FD6B680446B3F5003F05D0B3F5B7
:10565000403F06D0B3F5803F04D11B0CB4FBF3F4FC
:1056600000E08408FFF720F941F203022B68904222
:1056700023D8224A94429A681BD942F480721AE0D5
:10568000B3F5A01FD7D0B3F5C01FD3E7B3F5001F04
:10569000E8D14409E6E7B3F5201F08D0B3F5301F81
:1056A000E0D1040ADEE70409DCE78409DAE7C4098B
:1056B000D8E722F480729A6038BD11496208B1EBD4
:1056C000540F03D39A6822F44072F4E70D498A42DA
:1056D00003D89A6822F44072CFE70B498A429A684D
:1056E00096BF22F4407242F4407242F40072E2E744
:1056F000002002400023024000630258002D3101C7
:10570000105E5F0020BCBE0040787D010023F7B52D
:1057100004460193002800F011820368A14A9342D5
:105720000BD002F58072934207D09F4A934204D077
:1057300040F2A7119D48FCF7DBFE636833F440326A
:105740001BD023F40022B2F5802F16D023F4801250
:10575000B2F5002F11D023F48022B2F5801F0CD0B7
:10576000B3F5E01F09D023F44023B3F5001F04D0A4
:105770004FF4D4718D48FCF7BBFEA36863B1043BC2
:10578000142B04D88A4A22FA03F3DD0704D440F22A
:10579000A9118648FCF7ACFEE368012B04D94FF44D
:1057A000D5718248FCF7A4FE637D012B04D940F239
:1057B000AB117E48FCF79CFEA36A33F4406304D02F
:1057C0004FF4D6717948FCF793FE636A33F4806234
:1057D00026D023F04002B2F5846F21D023F080025E
:1057E000B2F5886F1CD023F49072B2F5906F17D089
:1057F00023F48072B2F59C6F12D023F06002B2F5F0
:10580000A06F0DD0B3F5B86F0AD0B2F5C06F07D056
:10581000B3F5D06F04D040F2AD116448FCF768FED8
:10582000E36A032B04D94FF4D7716048FCF760FE9C
:105830002369042B06D0082B04D040F2AF115B483B
:10584000FCF756FE236B33F4805304D04FF4D87129
:105850005648FCF74DFE237D012B04D940F2B111CF
:105860005248FCF745FE94F83830012B04D94FF428
:10587000D9714E48FCF73CFEE3682BB3A369013BAA
:105880000F2B04D94FF4DB714848FCF731FE237F1E
:10589000012B04D940F2B7114448FCF729FE237FBD
:1058A000012B14D1236A013B072B08D8637D012B00
:1058B0000DD14FF4E0713D48FCF71AFE07E040F2CD
:1058C000BB113A48FCF714FE237F012BEED0656D27
:1058D0002DB92046FFF720F8A56584F850502368BD
:1058E0009A68900005D59A6822F0204222F03F0283
:1058F0009A609A68D1003DD59A68D2004FD4626D03
:10590000012542F010026265A26D42F00102A2651B
:105910001846FEF7FDFF626D02F01002024340F0F0
:105920000981626D184622F4817242F002026265BA
:10593000FEF7EAFF00284AD11A4E1E49B34201D0B1
:105940008B423FD11748FEF7DFFF02461948FEF7AA
:10595000DBFF0243012A3AD0B34200F0DC808B42E5
:1059600000F0D980144A9368616823F47C130B43D8
:1059700093602CE09A68114922F0104222F03F0215
:1059800042F080529A600E4A1268B2FBF1F2013284
:105990000192019A002AAFD0019A013AF8E7002556
:1059A000B6E700BF0020024000600258EFC90008BF
:1059B000111111000021024000630258400D030044
:1059C000080000205E48FEF79FFF0128CAD141F27F
:1059D0000307FEF769FF637DB842A268266B4FEAB2
:1059E0004333217F40F29980102A40F0968043EAA9
:1059F0000143334343F01C02012902BF236A03F130
:105A0000FF3342EA4342636A23B103F47873A16A25
:105A10000B431A4323684B49D86801401846114389
:105A2000D960FEF775FF9A6802F0080202435ED162
:105A3000DA68217D22F4804222F0030242EA8132B8
:105A4000E16A0A43DA6094F83820012A6AD1E36BEC
:105A5000013BB3F5806F04D34FF430713A48FCF743
:105A600047FD236C33F0600309D0802B07D0B3F5DA
:105A7000807F04D040F2C2213348FCF739FD636CCB
:105A800033F4007304D040F2C3212F48FCF730FDFB
:105A9000A36C23F48063012B04D04FF431712A48A6
:105AA000FCF726FD636A0BB1A36A33B9636C23B1BB
:105AB00040F2CA212448FCF71BFDE26B2368511E0B
:105AC0001869D4E91026324342EA0142A16C0A4324
:105AD0001E4901400A4342F001021A6120461A6938
